{
  "contractName": "Meme",
  "abi": [
    {
      "constant": false,
      "inputs": [
        {
          "internalType": "string",
          "name": "_memeHash",
          "type": "string"
        }
      ],
      "name": "set",
      "outputs": [],
      "payable": false,
      "stateMutability": "nonpayable",
      "type": "function"
    },
    {
      "constant": true,
      "inputs": [],
      "name": "get",
      "outputs": [
        {
          "internalType": "string",
          "name": "",
          "type": "string"
        }
      ],
      "payable": false,
      "stateMutability": "view",
      "type": "function"
    },
    {
      "constant": false,
      "inputs": [
        {
          "internalType": "string",
          "name": "_avgRating",
          "type": "string"
        }
      ],
      "name": "setAvgRating",
      "outputs": [],
      "payable": false,
      "stateMutability": "nonpayable",
      "type": "function"
    },
    {
      "constant": true,
      "inputs": [],
      "name": "getAvgRating",
      "outputs": [
        {
          "internalType": "string",
          "name": "",
          "type": "string"
        }
      ],
      "payable": false,
      "stateMutability": "view",
      "type": "function"
    },
    {
      "constant": false,
      "inputs": [
        {
          "internalType": "uint256",
          "name": "_totalRating",
          "type": "uint256"
        }
      ],
      "name": "setTotalRating",
      "outputs": [],
      "payable": false,
      "stateMutability": "nonpayable",
      "type": "function"
    },
    {
      "constant": true,
      "inputs": [],
      "name": "getTotalRating",
      "outputs": [
        {
          "internalType": "uint256",
          "name": "",
          "type": "uint256"
        }
      ],
      "payable": false,
      "stateMutability": "view",
      "type": "function"
    },
    {
      "constant": false,
      "inputs": [
        {
          "internalType": "uint256",
          "name": "_sumRating",
          "type": "uint256"
        }
      ],
      "name": "setSumRating",
      "outputs": [],
      "payable": false,
      "stateMutability": "nonpayable",
      "type": "function"
    },
    {
      "constant": true,
      "inputs": [],
      "name": "getSumRating",
      "outputs": [
        {
          "internalType": "uint256",
          "name": "",
          "type": "uint256"
        }
      ],
      "payable": false,
      "stateMutability": "view",
      "type": "function"
    }
  ],
  "bytecode": "0x608060405234801561001057600080fd5b5061061b806100206000396000f3fe608060405234801561001057600080fd5b50600436106100885760003560e01c806363c9c1151161005b57806363c9c115146101c25780636d4ce63c1461027d57806396edfafa14610300578063b3b86d1c1461031e57610088565b80630c13f67a1461008d57806346e0d030146100bb5780634ed3885e146100d95780635b67821614610194575b600080fd5b6100b9600480360360208110156100a357600080fd5b81019080803590602001909291905050506103a1565b005b6100c36103ab565b6040518082815260200191505060405180910390f35b610192600480360360208110156100ef57600080fd5b810190808035906020019064010000000081111561010c57600080fd5b82018360208201111561011e57600080fd5b8035906020019184600183028401116401000000008311171561014057600080fd5b91908080601f016020809104026020016040519081016040528093929190818152602001838380828437600081840152601f19601f8201169050808301925050505050505091929192905050506103b5565b005b6101c0600480360360208110156101aa57600080fd5b81019080803590602001909291905050506103cf565b005b61027b600480360360208110156101d857600080fd5b81019080803590602001906401000000008111156101f557600080fd5b82018360208201111561020757600080fd5b8035906020019184600183028401116401000000008311171561022957600080fd5b91908080601f016020809104026020016040519081016040528093929190818152602001838380828437600081840152601f19601f8201169050808301925050505050505091929192905050506103d9565b005b6102856103f3565b6040518080602001828103825283818151815260200191508051906020019080838360005b838110156102c55780820151818401526020810190506102aa565b50505050905090810190601f1680156102f25780820380516001836020036101000a031916815260200191505b509250505060405180910390f35b610308610495565b6040518082815260200191505060405180910390f35b61032661049f565b6040518080602001828103825283818151815260200191508051906020019080838360005b8381101561036657808201518184015260208101905061034b565b50505050905090810190601f1680156103935780820380516001836020036101000a031916815260200191505b509250505060405180910390f35b8060038190555050565b6000600254905090565b80600090805190602001906103cb929190610541565b5050565b8060028190555050565b80600190805190602001906103ef929190610541565b5050565b606060008054600181600116156101000203166002900480601f01602080910402602001604051908101604052809291908181526020018280546001816001161561010002031660029004801561048b5780601f106104605761010080835404028352916020019161048b565b820191906000526020600020905b81548152906001019060200180831161046e57829003601f168201915b5050505050905090565b6000600354905090565b606060018054600181600116156101000203166002900480601f0160208091040260200160405190810160405280929190818152602001828054600181600116156101000203166002900480156105375780601f1061050c57610100808354040283529160200191610537565b820191906000526020600020905b81548152906001019060200180831161051a57829003601f168201915b5050505050905090565b828054600181600116156101000203166002900490600052602060002090601f016020900481019282601f1061058257805160ff19168380011785556105b0565b828001600101855582156105b0579182015b828111156105af578251825591602001919060010190610594565b5b5090506105bd91906105c1565b5090565b6105e391905b808211156105df5760008160009055506001016105c7565b5090565b9056fea265627a7a72315820094e9c48fc841aa424f61531a8effba89f1e6752bf2b345bf22aaeb8d054a87464736f6c63430005100032",
  "source": "pragma solidity 0.5.16;\r\n\r\ncontract Meme {\r\n  string memeHash;\r\n  string avgRating;\r\n  uint totalRating;\r\n  uint sumRating;\r\n\r\n  //write function\r\n  function set(string memory _memeHash) public {\r\n    memeHash = _memeHash;\r\n  }\r\n\r\n  //read function\r\n  function get() public view returns (string memory){\r\n    return memeHash;\r\n  }\r\n\r\n  //write function\r\n  function setAvgRating(string memory _avgRating) public {\r\n    avgRating = _avgRating;\r\n  }\r\n\r\n  //read function\r\n  function getAvgRating() public view returns (string memory){\r\n    return avgRating;\r\n  }\r\n\r\n  //write function\r\n  function setTotalRating(uint _totalRating) public {\r\n    totalRating = _totalRating;\r\n  }\r\n\r\n  //read function\r\n  function getTotalRating() public view returns (uint){\r\n    return totalRating;\r\n  }\r\n\r\n  //write function\r\n  function setSumRating(uint _sumRating) public {\r\n    sumRating = _sumRating;\r\n  }\r\n\r\n  //read function\r\n  function getSumRating() public view returns (uint){\r\n    return sumRating;\r\n  }\r\n\r\n}\r\n",
  "sourcePath": "C:/Users/ASUS/test/src/contracts/Meme.sol",
  "compiler": {
    "name": "solc",
    "version": "0.5.16+commit.9c3226ce.Emscripten.clang"
  },
  "schemaVersion": "3.3.4",
  "updatedAt": "2021-05-18T11:00:40.188Z",
  "devdoc": {
    "methods": {}
  },
  "userdoc": {
    "methods": {}
  }
}